:100000000C9434000C943E000C943E000C943E0082
:100010000C943E000C943E000C943E000C943E0068
:100020000C943E000C943E000C943E000C943E0058
:100030000C943E000C943E000C943E000C943E0048
:100040000C943E000C943E000C943E000C943E0038
:100050000C943E000C943E000C943E000C943E0028
:100060000C943E000C943E0011241FBECFEFD8E04C
:10007000DEBFCDBF0E9488000C948C000C94000061
:10008000613069F044B121E030E0B90102C0660F8F
:10009000771F8A95E2F7CB01842B84B908954AB182
:1000A00021E030E0B90102C0660F771F8A95E2F7C0
:1000B000CB01809584238AB9089545B121E030E0D1
:1000C000613059F0B90102C0660F771F8A95E2F7D7
:1000D000CB018095842385B90895B90102C0660FCC
:1000E000771F8A95E2F7CB01842B85B90895259A6D
:1000F00008954B9B0BC02D982FEF83ED90E321507B
:1001000080409040E1F700C0000008952D9AF4CFA0
:0C011000259A0E947900FDCFF894FFCFE3
:00000001FF
